:060000000A128A11992F7B
:100F320083010A128A119D2F0A128A11B5270A12F9
:100F42008A117F30F0000130F1010A128A11CF2795
:100F52000A128A11BF30F0000230F1010A128A111E
:100F6200CF270A128A11B42F83160C30871007116B
:100F7200831297009D00FF30831692000130831286
:100F82009200F001F101CF270A128A110230F0011A
:100F9200F101CF278312031312150800F400031086
:100FA200F00DF10D0310F00DF10DE92FF227950070
:100FB200CF309705700EF039303997040800F227C8
:100FC2009B00CF309D05700EF03930399D0408002A
:100FD2007408013A0319D72F033A0319E02FF12FAE
:100FE20008007108F3007008F2000310F30CF20C11
:0E0FF2000310F30CF20C7208831203130800B4
:02400E0072FF3F
:00000001FF
