:060000000A128A11152FFF
:100E2A0083010A128A11192F3030F40083168601C1
:100E3A0083128601402F31303F2F32303F2F33301B
:100E4A003F2F34303F2F35303F2F36303F2F37304A
:100E5A003F2F38303F2F39303F2F41303F2F42301C
:100E6A003F2F43303F2F44303F2F45303F2F4630EE
:100E7A003F2F3030F40074080A128A1188270A12A8
:100E8A008A111A30F3005E30F2008630F100F10B5D
:100E9A004C2FF20B4C2FF30B4C2F64007408303A92
:100EAA000319202F013A0319222F033A0319242F79
:100EBA00013A0319262F073A0319282F013A031971
:100ECA002A2F033A03192C2F013A03192E2F0F3A0E
:100EDA000319302F013A0319322F783A0319342FA4
:100EEA00033A0319362F013A0319382F073A03191F
:100EFA003A2F013A03193C2F033A03193E2F3E2F8A
:100F0A000A128A110028F000CA2F3F30FD278600F6
:100F1A0008000630FD27860008005B30FD278600A2
:100F2A0008004F30FD27860008006630FD2786003E
:100F3A0008006D30FD27860008007D30FD278600F9
:100F4A0008000730FD27860008007F30FD2786004D
:100F5A0008006F30FD27860008007730FD278600DD
:100F6A0008007C30FD27860008003930FD278600FE
:100F7A0008005E30FD27860008007930FD278600CC
:100F8A0008007130FD27860008007008303A0319FE
:100F9A008A2F013A03198E2F033A0319922F013A25
:100FAA000319962F073A03199A2F013A03199E2F0C
:100FBA00033A0319A22F013A0319A62F0F3A03196C
:100FCA00AA2F013A0319AE2F783A0319B22F033A1E
:100FDA000319B62F013A0319BA2F073A0319BE2F7C
:100FEA00013A0319C22F033A0319C62F8A2F0800A0
:060FFA008312031308003E
:02400E0072FF3F
:00000001FF
