:02000000422894
:0E0006008312031321088A00200882000800DC
:100014000E3083120313FD00FD0B0E2800000800B0
:10002400831203139F01C0309F0483161F179F1769
:1000340083122408F000F00D7010F00D7010F00D14
:10004400701070089F041F140A201F151F1D2C28F0
:10005400000028281F101E08F100F00183161E0856
:08006400F0040030F104080073
:10006C0003208A110A128000840AA00A0319A10A2B
:08007C00F003031D3628080003
:100084008030831603139F00FF3085003F308700C4
:10009400860101308312A400122070088312A2008A
:1000A4007108A300700886007008F2007108F3005C
:1000B400F30CF20CF313F30CF20CF3137208870035
:0400C4004B2863283A
:02400E004A2F37
:00000001FF
