:100000000A128A11822E00308A000408840A8207AC
:1000100000345334743461347234743469346E345B
:0A00200067342E342E342E340034E1
:100D040083010A128A11642F710870040319A52E35
:100D1400F401F40AF11B922E0310F00DF10D8B2E49
:100D240071087302031D982E70087202031CA12E11
:100D34007008F2027108031CF303F3020310F10CB0
:100D4400F00CF40B922E7308F1007208F000080006
:100D5400F401F501710870040319CF2EF601F60AA7
:100D6400F11BB82E0310F00DF10DB12E0310F40D8C
:100D7400F50D71087302031DC12E70087202031C65
:100D8400CB2E7008F2027108031CF303F3027414EF
:100D94000310F10CF00CF60BB82E7508F100740872
:100DA400F0000800013028270A128A110D30F400DF
:100DB400FB30F300F30BDC2EF40BDC2EE12E0800E9
:100DC40086120612880183168612061288010230E2
:100DD400F5000430F400BA30F300F30BEF2EF40BFB
:100DE400EF2EF50BEF2E6400303028270A128A11FB
:100DF4002730F400F530F300F30BFE2EF40BFE2E37
:100E0400303028270A128A11D630F300092F0A2F0E
:100E1400F30B082F6400303028270A128A110D3092
:100E2400F400FB30F300F30B152FF40B152F1A2FDE
:100E3400383028270A128A110C3028270A128A11FE
:100E4400013028270A128A110630282FF200831253
:100E540003130612720888004D2FF30073088400F0
:100E64000A128A1103200A128A1100380319080091
:100E7400730884000A128A1103200A128A11462771
:100E84000A128A11F30A302FF20083120313061692
:100E9400720888004D2F04308616F1003D30F000B2
:100EA400F00B522FF10B522F572F831203130430E0
:100EB4008612F1003D30F000F00B5E2FF10B5E2F37
:100EC400632F0800FA01FB010A128A11E2260A12B2
:100ED4008A1183160313061586150A128A11D4265D
:100EE4000A128A1101300A128A112F270A128A1152
:100EF4000D30F900AF30F800C130F700F70B802F48
:100F0400F80B802FF90B802F640083120313061D46
:100F1400A22F861DBE2F86198D2F8230F800DD305A
:100F2400F700F70B932FF80B932F982FFA0A031956
:100F3400FB0A7A08643A7B04031DBE2FFA01B62F1C
:100F4400061D861DBE2F8619A52F8230F800DD30C0
:100F5400F700F70BAB2FF80BAB2FB02F7B087A04FD
:100F6400031DB82F6330FA00FB01BE2F0130FA02D3
:100F74000030031CFB03FB020A128A11D4260A1256
:100F84008A1100307B020A3003197A020318CC2F2D
:100F94007A08EC2F0A30F000F1017B08F3007A089C
:100FA400F2000A128A11AA260A128A117008303E27
:100FB4000A128A1146270A128A110A30F000F10136
:100FC4007B08F3007A08F2000A128A1186260A12B4
:100FD4008A117008303E0A128A1146270A128A11B1
:100FE4000630F9001330F800B130F700F70BF82F92
:0C0FF400F80BF82FF90BF82FFF2F872FB8
:02400E0072FF3F
:00000001FF
