:100000000A128A111D2F00308A000408840A820710
:100010000034483465346C346C346F3420345734D5
:0C0020006F3472346C34643421340034CA
:100E3A0083010A128A11212F0A128A1169270A12BA
:100E4A008A110A128A1132270A128A1101300A12E9
:100E5A008A1140270A128A11312F0130DD270A121E
:100E6A008A110D30F400FB30F300F30B3A2FF40B28
:100E7A003A2F3F2F0800F300730884000A128A11E0
:100E8A0003200A128A110038031908007308840023
:100E9A000A128A1103200A128A1157270A128A1182
:100EAA00F30A412FF200FD270F30861486057208D7
:100EBA00F0398604C7270A128A110F30FD278605E2
:100ECA00720EF0398604C72FF6270A128A11831682
:100EDA000230F6270A128A11F5000430F400BA30FB
:100EEA00F300F30B762FF40B762FF50B762F6400B5
:100EFA00EF270A128A11C7270A128A112730F4002B
:100F0A00F530F300F30B872FF40B872F0F30FD27F3
:100F1A00860530308604C7270A128A11D630F300B4
:100F2A00962F972FF30B952F6400EF270A128A1139
:100F3A00C7270A128A110D30F400FB30F300F30BB5
:100F4A00A42FF40BA42FA92F0F30FD278605861690
:100F5A00C7270A128A110D30F400FB30F300F30B95
:100F6A00B42FF40BB42FB92F2830DD270A128A11B7
:100F7A000C30DD270A128A110130DD270A128A1184
:100F8A000630DD2F04300614F1003D30F000F00B7E
:100F9A00CC2FF10BCC2FD12FFD2704300610F100F6
:100FAA003D30F000F00BD72FF10BD72FDC2F0800C4
:100FBA00F200FD270F30861086057208F039860484
:100FCA00C7270A128A110F30FD278605720EF039DB
:100FDA008604C72F0F308312031386053030860428
:100FEA0008000610861006128612061386130800D9
:060FFA008312031308003E
:02400E0072FF3F
:00000001FF
